{
  "_format": "hh-sol-artifact-1",
  "contractName": "StakingContract",
  "sourceName": "contracts/StakingContract.sol",
  "abi": [
    {
      "inputs": [
        {
          "internalType": "address",
          "name": "_wdogeToken",
          "type": "address"
        }
      ],
      "stateMutability": "nonpayable",
      "type": "constructor"
    },
    {
      "inputs": [],
      "name": "AlreadyStaking",
      "type": "error"
    },
    {
      "inputs": [],
      "name": "BelowMinStake",
      "type": "error"
    },
    {
      "inputs": [],
      "name": "ContractPaused",
      "type": "error"
    },
    {
      "inputs": [],
      "name": "InsufficientBalance",
      "type": "error"
    },
    {
      "inputs": [],
      "name": "LockupPeriodNotOver",
      "type": "error"
    },
    {
      "inputs": [],
      "name": "MaxCapReached",
      "type": "error"
    },
    {
      "inputs": [],
      "name": "NoActiveStake",
      "type": "error"
    },
    {
      "inputs": [],
      "name": "NotOwner",
      "type": "error"
    },
    {
      "inputs": [],
      "name": "ReentrantCall",
      "type": "error"
    },
    {
      "inputs": [],
      "name": "TransferFailed",
      "type": "error"
    },
    {
      "anonymous": false,
      "inputs": [
        {
          "indexed": true,
          "internalType": "address",
          "name": "user",
          "type": "address"
        },
        {
          "indexed": false,
          "internalType": "uint256",
          "name": "amount",
          "type": "uint256"
        }
      ],
      "name": "EmergencyWithdrawn",
      "type": "event"
    },
    {
      "anonymous": false,
      "inputs": [
        {
          "indexed": false,
          "internalType": "uint256",
          "name": "newCap",
          "type": "uint256"
        }
      ],
      "name": "MaxCapUpdated",
      "type": "event"
    },
    {
      "anonymous": false,
      "inputs": [
        {
          "indexed": false,
          "internalType": "bool",
          "name": "status",
          "type": "bool"
        }
      ],
      "name": "Paused",
      "type": "event"
    },
    {
      "anonymous": false,
      "inputs": [
        {
          "indexed": false,
          "internalType": "uint256",
          "name": "utilizationRate",
          "type": "uint256"
        },
        {
          "indexed": false,
          "internalType": "uint256",
          "name": "adjustedUtilization",
          "type": "uint256"
        },
        {
          "indexed": false,
          "internalType": "uint256",
          "name": "rateSpread",
          "type": "uint256"
        },
        {
          "indexed": false,
          "internalType": "uint256",
          "name": "rateReduction",
          "type": "uint256"
        },
        {
          "indexed": false,
          "internalType": "uint256",
          "name": "newRate",
          "type": "uint256"
        }
      ],
      "name": "RateCalculation",
      "type": "event"
    },
    {
      "anonymous": false,
      "inputs": [
        {
          "indexed": false,
          "internalType": "uint256",
          "name": "oldRate",
          "type": "uint256"
        },
        {
          "indexed": false,
          "internalType": "uint256",
          "name": "newRate",
          "type": "uint256"
        }
      ],
      "name": "RateUpdated",
      "type": "event"
    },
    {
      "anonymous": false,
      "inputs": [
        {
          "indexed": true,
          "internalType": "address",
          "name": "user",
          "type": "address"
        },
        {
          "indexed": false,
          "internalType": "uint256",
          "name": "amount",
          "type": "uint256"
        },
        {
          "indexed": false,
          "internalType": "uint256",
          "name": "rate",
          "type": "uint256"
        }
      ],
      "name": "Staked",
      "type": "event"
    },
    {
      "anonymous": false,
      "inputs": [
        {
          "indexed": true,
          "internalType": "address",
          "name": "user",
          "type": "address"
        },
        {
          "indexed": false,
          "internalType": "uint256",
          "name": "amount",
          "type": "uint256"
        },
        {
          "indexed": false,
          "internalType": "uint256",
          "name": "reward",
          "type": "uint256"
        }
      ],
      "name": "Unstaked",
      "type": "event"
    },
    {
      "inputs": [],
      "name": "baseRate",
      "outputs": [
        {
          "internalType": "uint256",
          "name": "",
          "type": "uint256"
        }
      ],
      "stateMutability": "view",
      "type": "function"
    },
    {
      "inputs": [],
      "name": "calculateDynamicRate",
      "outputs": [
        {
          "internalType": "uint256",
          "name": "",
          "type": "uint256"
        }
      ],
      "stateMutability": "view",
      "type": "function"
    },
    {
      "inputs": [
        {
          "internalType": "address",
          "name": "user",
          "type": "address"
        }
      ],
      "name": "calculateReward",
      "outputs": [
        {
          "internalType": "uint256",
          "name": "",
          "type": "uint256"
        }
      ],
      "stateMutability": "view",
      "type": "function"
    },
    {
      "inputs": [],
      "name": "currentRate",
      "outputs": [
        {
          "internalType": "uint256",
          "name": "",
          "type": "uint256"
        }
      ],
      "stateMutability": "view",
      "type": "function"
    },
    {
      "inputs": [],
      "name": "emergencyWithdraw",
      "outputs": [],
      "stateMutability": "nonpayable",
      "type": "function"
    },
    {
      "inputs": [],
      "name": "fundRewards",
      "outputs": [],
      "stateMutability": "payable",
      "type": "function"
    },
    {
      "inputs": [],
      "name": "lockupPeriod",
      "outputs": [
        {
          "internalType": "uint256",
          "name": "",
          "type": "uint256"
        }
      ],
      "stateMutability": "view",
      "type": "function"
    },
    {
      "inputs": [],
      "name": "maxCap",
      "outputs": [
        {
          "internalType": "uint256",
          "name": "",
          "type": "uint256"
        }
      ],
      "stateMutability": "view",
      "type": "function"
    },
    {
      "inputs": [],
      "name": "maxRate",
      "outputs": [
        {
          "internalType": "uint256",
          "name": "",
          "type": "uint256"
        }
      ],
      "stateMutability": "view",
      "type": "function"
    },
    {
      "inputs": [],
      "name": "minRate",
      "outputs": [
        {
          "internalType": "uint256",
          "name": "",
          "type": "uint256"
        }
      ],
      "stateMutability": "view",
      "type": "function"
    },
    {
      "inputs": [],
      "name": "minStakeAmount",
      "outputs": [
        {
          "internalType": "uint256",
          "name": "",
          "type": "uint256"
        }
      ],
      "stateMutability": "view",
      "type": "function"
    },
    {
      "inputs": [],
      "name": "owner",
      "outputs": [
        {
          "internalType": "address",
          "name": "",
          "type": "address"
        }
      ],
      "stateMutability": "view",
      "type": "function"
    },
    {
      "inputs": [],
      "name": "paused",
      "outputs": [
        {
          "internalType": "bool",
          "name": "",
          "type": "bool"
        }
      ],
      "stateMutability": "view",
      "type": "function"
    },
    {
      "inputs": [
        {
          "internalType": "uint256",
          "name": "_newCap",
          "type": "uint256"
        }
      ],
      "name": "setMaxCap",
      "outputs": [],
      "stateMutability": "nonpayable",
      "type": "function"
    },
    {
      "inputs": [
        {
          "internalType": "bool",
          "name": "_paused",
          "type": "bool"
        }
      ],
      "name": "setPaused",
      "outputs": [],
      "stateMutability": "nonpayable",
      "type": "function"
    },
    {
      "inputs": [],
      "name": "stake",
      "outputs": [],
      "stateMutability": "payable",
      "type": "function"
    },
    {
      "inputs": [
        {
          "internalType": "address",
          "name": "",
          "type": "address"
        }
      ],
      "name": "stakes",
      "outputs": [
        {
          "internalType": "uint256",
          "name": "amount",
          "type": "uint256"
        },
        {
          "internalType": "uint256",
          "name": "startTime",
          "type": "uint256"
        },
        {
          "internalType": "uint256",
          "name": "lockedRate",
          "type": "uint256"
        },
        {
          "internalType": "bool",
          "name": "active",
          "type": "bool"
        }
      ],
      "stateMutability": "view",
      "type": "function"
    },
    {
      "inputs": [],
      "name": "totalValueLocked",
      "outputs": [
        {
          "internalType": "uint256",
          "name": "",
          "type": "uint256"
        }
      ],
      "stateMutability": "view",
      "type": "function"
    },
    {
      "inputs": [],
      "name": "unstake",
      "outputs": [],
      "stateMutability": "nonpayable",
      "type": "function"
    },
    {
      "inputs": [],
      "name": "wdogeToken",
      "outputs": [
        {
          "internalType": "contract WDOGEToken",
          "name": "",
          "type": "address"
        }
      ],
      "stateMutability": "view",
      "type": "function"
    },
    {
      "stateMutability": "payable",
      "type": "receive"
    }
  ],
  "bytecode": "0x60a06040526005600155600f6002556003805569d3c21bcecceda1000000600655674563918244f4000060075562093a806008553480156200004057600080fd5b5060405162001d0738038062001d078339818101604052810190620000669190620001fa565b600073ffffffffffffffffffffffffffffffffffffffff168173ffffffffffffffffffffffffffffffffffffffff1603620000d8576040517f08c379a0000000000000000000000000000000000000000000000000000000008152600401620000cf906200028d565b60405180910390fd5b8073ffffffffffffffffffffffffffffffffffffffff1660808173ffffffffffffffffffffffffffffffffffffffff1681525050336000806101000a81548173ffffffffffffffffffffffffffffffffffffffff021916908373ffffffffffffffffffffffffffffffffffffffff16021790555060025460048190555060008060146101000a81548160ff02191690831515021790555060008060156101000a81548160ff02191690831515021790555050620002af565b600080fd5b600073ffffffffffffffffffffffffffffffffffffffff82169050919050565b6000620001c28262000195565b9050919050565b620001d481620001b5565b8114620001e057600080fd5b50565b600081519050620001f481620001c9565b92915050565b60006020828403121562000213576200021262000190565b5b60006200022384828501620001e3565b91505092915050565b600082825260208201905092915050565b7f496e76616c69642057444f474520746f6b656e20616464726573730000000000600082015250565b600062000275601b836200022c565b915062000282826200023d565b602082019050919050565b60006020820190508181036000830152620002a88162000266565b9050919050565b608051611a27620002e06000396000818161086301528181610c7401528181610e1501526111dd0152611a276000f3fe6080604052600436106101235760003560e01c8063763265de116100a0578063ece1d6e511610064578063ece1d6e51461038e578063ee947a7c146103b9578063f1887684146103e4578063f9f8bdb71461040f578063ff18bf0b1461043a5761012a565b8063763265de146102bb5780638da5cb5b146102e4578063d82e39621461030f578063db2e21bc1461034c578063ec18154e146103635761012a565b80632807c9ac116100e75780632807c9ac146102195780632def6620146102445780633a4b66f11461025b5780635a471524146102655780635c975abb146102905761012a565b80630cb604431461012f57806316934fc41461015a57806316c38b3c1461019a5780631f68f20a146101c357806323548b8b146101ee5761012a565b3661012a57005b600080fd5b34801561013b57600080fd5b50610144610444565b6040516101519190611527565b60405180910390f35b34801561016657600080fd5b50610181600480360381019061017c91906115a5565b61044a565b60405161019194939291906115ed565b60405180910390f35b3480156101a657600080fd5b506101c160048036038101906101bc919061165e565b610487565b005b3480156101cf57600080fd5b506101d8610560565b6040516101e59190611527565b60405180910390f35b3480156101fa57600080fd5b50610203610566565b6040516102109190611527565b60405180910390f35b34801561022557600080fd5b5061022e61056c565b60405161023b9190611527565b60405180910390f35b34801561025057600080fd5b50610259610650565b005b610263610a9c565b005b34801561027157600080fd5b5061027a610e13565b60405161028791906116ea565b60405180910390f35b34801561029c57600080fd5b506102a5610e37565b6040516102b29190611705565b60405180910390f35b3480156102c757600080fd5b506102e260048036038101906102dd919061174c565b610e4a565b005b3480156102f057600080fd5b506102f9610f5c565b6040516103069190611788565b60405180910390f35b34801561031b57600080fd5b50610336600480360381019061033191906115a5565b610f80565b6040516103439190611527565b60405180910390f35b34801561035857600080fd5b50610361611079565b005b34801561036f57600080fd5b50610378611416565b6040516103859190611527565b60405180910390f35b34801561039a57600080fd5b506103a361141c565b6040516103b09190611527565b60405180910390f35b3480156103c557600080fd5b506103ce611422565b6040516103db9190611527565b60405180910390f35b3480156103f057600080fd5b506103f9611428565b6040516104069190611527565b60405180910390f35b34801561041b57600080fd5b5061042461142e565b6040516104319190611527565b60405180910390f35b610442611434565b005b60035481565b60096020528060005260406000206000915090508060000154908060010154908060020154908060030160009054906101000a900460ff16905084565b60008054906101000a900473ffffffffffffffffffffffffffffffffffffffff1673ffffffffffffffffffffffffffffffffffffffff163373ffffffffffffffffffffffffffffffffffffffff161461050c576040517f30cd747100000000000000000000000000000000000000000000000000000000815260040160405180910390fd5b80600060146101000a81548160ff0219169083151502179055507f0e2fb031ee032dc02d8011dc50b816eb450cf856abd8261680dac74f72165bd2816040516105559190611705565b60405180910390a150565b60015481565b60065481565b6000806005540361058157600254905061064d565b6000600654606460055461059591906117d2565b61059f9190611843565b9050600a81116105b45760025491505061064d565b604b81106105c75760035491505061064d565b60006003546002546105d99190611874565b9050600060416064600a856105ee9190611874565b6105f891906117d2565b6106029190611843565b905060006064828461061491906117d2565b61061e9190611843565b90506000816002546106309190611874565b9050600354811161064357600354610645565b805b955050505050505b90565b600060159054906101000a900460ff1615610697576040517f37ed32e800000000000000000000000000000000000000000000000000000000815260040160405180910390fd5b6001600060156101000a81548160ff021916908315150217905550600060149054906101000a900460ff16156106f9576040517fab35696f00000000000000000000000000000000000000000000000000000000815260040160405180910390fd5b6000600960003373ffffffffffffffffffffffffffffffffffffffff1673ffffffffffffffffffffffffffffffffffffffff1681526020019081526020016000206040518060800160405290816000820154815260200160018201548152602001600282015481526020016003820160009054906101000a900460ff161515151581525050905080606001516107bb576040517ffb34894200000000000000000000000000000000000000000000000000000000815260040160405180910390fd5b60085481602001516107cd91906118a8565b421015610806576040517f9e2470e900000000000000000000000000000000000000000000000000000000815260040160405180910390fd5b600061081133610f80565b9050600081836000015161082591906118a8565b905080471015610861576040517ff4d678b800000000000000000000000000000000000000000000000000000000815260040160405180910390fd5b7f000000000000000000000000000000000000000000000000000000000000000073ffffffffffffffffffffffffffffffffffffffff16639dc29fac3385600001516040518363ffffffff1660e01b81526004016108c09291906118dc565b600060405180830381600087803b1580156108da57600080fd5b505af11580156108ee573d6000803e3d6000fd5b505050508260000151600560008282546109089190611874565b92505081905550600960003373ffffffffffffffffffffffffffffffffffffffff1673ffffffffffffffffffffffffffffffffffffffff168152602001908152602001600020600080820160009055600182016000905560028201600090556003820160006101000a81549060ff0219169055505060003373ffffffffffffffffffffffffffffffffffffffff16826040516109a390611936565b60006040518083038185875af1925050503d80600081146109e0576040519150601f19603f3d011682016040523d82523d6000602084013e6109e5565b606091505b5050905080610a20576040517f90b8ec1800000000000000000000000000000000000000000000000000000000815260040160405180910390fd5b3373ffffffffffffffffffffffffffffffffffffffff167f7fc4727e062e336010f2c282598ef5f14facb3de68cf8195c2f23e1454b2b74e856000015185604051610a6c92919061194b565b60405180910390a2610a7c6114bb565b5050505060008060156101000a81548160ff021916908315150217905550565b600060159054906101000a900460ff1615610ae3576040517f37ed32e800000000000000000000000000000000000000000000000000000000815260040160405180910390fd5b6001600060156101000a81548160ff021916908315150217905550600060149054906101000a900460ff1615610b45576040517fab35696f00000000000000000000000000000000000000000000000000000000815260040160405180910390fd5b600754341015610b81576040517f389f7e1100000000000000000000000000000000000000000000000000000000815260040160405180910390fd5b60065460055434610b9291906118a8565b1115610bca576040517ff10b176b00000000000000000000000000000000000000000000000000000000815260040160405180910390fd5b600960003373ffffffffffffffffffffffffffffffffffffffff1673ffffffffffffffffffffffffffffffffffffffff16815260200190815260200160002060030160009054906101000a900460ff1615610c51576040517f8b8e783000000000000000000000000000000000000000000000000000000000815260040160405180910390fd5b3460056000828254610c6391906118a8565b92505081905550610c726114bb565b7f000000000000000000000000000000000000000000000000000000000000000073ffffffffffffffffffffffffffffffffffffffff166340c10f1933346040518363ffffffff1660e01b8152600401610ccd9291906118dc565b600060405180830381600087803b158015610ce757600080fd5b505af1158015610cfb573d6000803e3d6000fd5b505050506040518060800160405280348152602001428152602001600454815260200160011515815250600960003373ffffffffffffffffffffffffffffffffffffffff1673ffffffffffffffffffffffffffffffffffffffff16815260200190815260200160002060008201518160000155602082015181600101556040820151816002015560608201518160030160006101000a81548160ff0219169083151502179055509050503373ffffffffffffffffffffffffffffffffffffffff167f1449c6dd7851abc30abf37f57715f492010519147cc2652fbc38202c18a6ee9034600454604051610def92919061194b565b60405180910390a260008060156101000a81548160ff021916908315150217905550565b7f000000000000000000000000000000000000000000000000000000000000000081565b600060149054906101000a900460ff1681565b60008054906101000a900473ffffffffffffffffffffffffffffffffffffffff1673ffffffffffffffffffffffffffffffffffffffff163373ffffffffffffffffffffffffffffffffffffffff1614610ecf576040517f30cd747100000000000000000000000000000000000000000000000000000000815260040160405180910390fd5b6005548111610f13576040517f08c379a0000000000000000000000000000000000000000000000000000000008152600401610f0a906119d1565b60405180910390fd5b806006819055507f2a3c966bd81e284cb915dbe4ab904449e36efb61fa0bd2b2b2139fb524d5431581604051610f499190611527565b60405180910390a1610f596114bb565b50565b60008054906101000a900473ffffffffffffffffffffffffffffffffffffffff1681565b600080600960008473ffffffffffffffffffffffffffffffffffffffff1673ffffffffffffffffffffffffffffffffffffffff1681526020019081526020016000206040518060800160405290816000820154815260200160018201548152602001600282015481526020016003820160009054906101000a900460ff1615151515815250509050806060015161101b576000915050611074565b600081602001514261102d9190611874565b9050600060646301e13380838560400151866000015161104d91906117d2565b61105791906117d2565b6110619190611843565b61106b9190611843565b90508093505050505b919050565b600060159054906101000a900460ff16156110c0576040517f37ed32e800000000000000000000000000000000000000000000000000000000815260040160405180910390fd5b6001600060156101000a81548160ff0219169083151502179055506000600960003373ffffffffffffffffffffffffffffffffffffffff1673ffffffffffffffffffffffffffffffffffffffff1681526020019081526020016000206040518060800160405290816000820154815260200160018201548152602001600282015481526020016003820160009054906101000a900460ff1615151515815250509050806060015161119d576040517ffb34894200000000000000000000000000000000000000000000000000000000815260040160405180910390fd5b80600001514710156111db576040517ff4d678b800000000000000000000000000000000000000000000000000000000815260040160405180910390fd5b7f000000000000000000000000000000000000000000000000000000000000000073ffffffffffffffffffffffffffffffffffffffff16639dc29fac3383600001516040518363ffffffff1660e01b815260040161123a9291906118dc565b600060405180830381600087803b15801561125457600080fd5b505af1158015611268573d6000803e3d6000fd5b505050508060000151600560008282546112829190611874565b92505081905550600960003373ffffffffffffffffffffffffffffffffffffffff1673ffffffffffffffffffffffffffffffffffffffff168152602001908152602001600020600080820160009055600182016000905560028201600090556003820160006101000a81549060ff0219169055505060003373ffffffffffffffffffffffffffffffffffffffff16826000015160405161132190611936565b60006040518083038185875af1925050503d806000811461135e576040519150601f19603f3d011682016040523d82523d6000602084013e611363565b606091505b505090508061139e576040517f90b8ec1800000000000000000000000000000000000000000000000000000000815260040160405180910390fd5b3373ffffffffffffffffffffffffffffffffffffffff167f2e39961a70a10f4d46383948095ac2752b3ee642a7c76aa827410aaff08c2e5183600001516040516113e89190611527565b60405180910390a26113f86114bb565b505060008060156101000a81548160ff021916908315150217905550565b60055481565b60025481565b60085481565b60075481565b60045481565b60008054906101000a900473ffffffffffffffffffffffffffffffffffffffff1673ffffffffffffffffffffffffffffffffffffffff163373ffffffffffffffffffffffffffffffffffffffff16146114b9576040517f30cd747100000000000000000000000000000000000000000000000000000000815260040160405180910390fd5b565b600060045490506114ca61056c565b6004819055507fb38780ddde1f073d91c150de2696f3f7085883648ba21cc5ef01029cb21d19168160045460405161150392919061194b565b60405180910390a150565b6000819050919050565b6115218161150e565b82525050565b600060208201905061153c6000830184611518565b92915050565b600080fd5b600073ffffffffffffffffffffffffffffffffffffffff82169050919050565b600061157282611547565b9050919050565b61158281611567565b811461158d57600080fd5b50565b60008135905061159f81611579565b92915050565b6000602082840312156115bb576115ba611542565b5b60006115c984828501611590565b91505092915050565b60008115159050919050565b6115e7816115d2565b82525050565b60006080820190506116026000830187611518565b61160f6020830186611518565b61161c6040830185611518565b61162960608301846115de565b95945050505050565b61163b816115d2565b811461164657600080fd5b50565b60008135905061165881611632565b92915050565b60006020828403121561167457611673611542565b5b600061168284828501611649565b91505092915050565b6000819050919050565b60006116b06116ab6116a684611547565b61168b565b611547565b9050919050565b60006116c282611695565b9050919050565b60006116d4826116b7565b9050919050565b6116e4816116c9565b82525050565b60006020820190506116ff60008301846116db565b92915050565b600060208201905061171a60008301846115de565b92915050565b6117298161150e565b811461173457600080fd5b50565b60008135905061174681611720565b92915050565b60006020828403121561176257611761611542565b5b600061177084828501611737565b91505092915050565b61178281611567565b82525050565b600060208201905061179d6000830184611779565b92915050565b7f4e487b7100000000000000000000000000000000000000000000000000000000600052601160045260246000fd5b60006117dd8261150e565b91506117e88361150e565b92508282026117f68161150e565b9150828204841483151761180d5761180c6117a3565b5b5092915050565b7f4e487b7100000000000000000000000000000000000000000000000000000000600052601260045260246000fd5b600061184e8261150e565b91506118598361150e565b92508261186957611868611814565b5b828204905092915050565b600061187f8261150e565b915061188a8361150e565b92508282039050818111156118a2576118a16117a3565b5b92915050565b60006118b38261150e565b91506118be8361150e565b92508282019050808211156118d6576118d56117a3565b5b92915050565b60006040820190506118f16000830185611779565b6118fe6020830184611518565b9392505050565b600081905092915050565b50565b6000611920600083611905565b915061192b82611910565b600082019050919050565b600061194182611913565b9150819050919050565b60006040820190506119606000830185611518565b61196d6020830184611518565b9392505050565b600082825260208201905092915050565b7f4e6577206361702062656c6f772054564c000000000000000000000000000000600082015250565b60006119bb601183611974565b91506119c682611985565b602082019050919050565b600060208201905081810360008301526119ea816119ae565b905091905056fea2646970667358221220da5bf0ac6b839d495874e5fdeb9831b972e04352b96238111316771dbbc96be164736f6c63430008140033",
  "linkReferences": {},
  "deployedLinkReferences": {}
}