{
  "_format": "hh-sol-artifact-1",
  "contractName": "StakingContract",
  "sourceName": "contracts/StakingContract.sol",
  "abi": [
    {
      "inputs": [
        {
          "internalType": "address",
          "name": "_wdogeToken",
          "type": "address"
        }
      ],
      "stateMutability": "nonpayable",
      "type": "constructor"
    },
    {
      "inputs": [],
      "name": "AccessControlBadConfirmation",
      "type": "error"
    },
    {
      "inputs": [
        {
          "internalType": "address",
          "name": "account",
          "type": "address"
        },
        {
          "internalType": "bytes32",
          "name": "neededRole",
          "type": "bytes32"
        }
      ],
      "name": "AccessControlUnauthorizedAccount",
      "type": "error"
    },
    {
      "inputs": [],
      "name": "AlreadyStaking",
      "type": "error"
    },
    {
      "inputs": [],
      "name": "InsufficientBalance",
      "type": "error"
    },
    {
      "inputs": [],
      "name": "InvalidAmount",
      "type": "error"
    },
    {
      "inputs": [],
      "name": "InvalidRate",
      "type": "error"
    },
    {
      "inputs": [],
      "name": "LockupPeriodNotOver",
      "type": "error"
    },
    {
      "inputs": [],
      "name": "NoActiveStake",
      "type": "error"
    },
    {
      "inputs": [],
      "name": "ReentrancyGuardReentrantCall",
      "type": "error"
    },
    {
      "inputs": [],
      "name": "TransferFailed",
      "type": "error"
    },
    {
      "anonymous": false,
      "inputs": [
        {
          "indexed": true,
          "internalType": "address",
          "name": "user",
          "type": "address"
        },
        {
          "indexed": false,
          "internalType": "uint256",
          "name": "amount",
          "type": "uint256"
        }
      ],
      "name": "EmergencyWithdrawn",
      "type": "event"
    },
    {
      "anonymous": false,
      "inputs": [
        {
          "indexed": false,
          "internalType": "uint256",
          "name": "oldRate",
          "type": "uint256"
        },
        {
          "indexed": false,
          "internalType": "uint256",
          "name": "newRate",
          "type": "uint256"
        }
      ],
      "name": "RewardRateUpdated",
      "type": "event"
    },
    {
      "anonymous": false,
      "inputs": [
        {
          "indexed": true,
          "internalType": "bytes32",
          "name": "role",
          "type": "bytes32"
        },
        {
          "indexed": true,
          "internalType": "bytes32",
          "name": "previousAdminRole",
          "type": "bytes32"
        },
        {
          "indexed": true,
          "internalType": "bytes32",
          "name": "newAdminRole",
          "type": "bytes32"
        }
      ],
      "name": "RoleAdminChanged",
      "type": "event"
    },
    {
      "anonymous": false,
      "inputs": [
        {
          "indexed": true,
          "internalType": "bytes32",
          "name": "role",
          "type": "bytes32"
        },
        {
          "indexed": true,
          "internalType": "address",
          "name": "account",
          "type": "address"
        },
        {
          "indexed": true,
          "internalType": "address",
          "name": "sender",
          "type": "address"
        }
      ],
      "name": "RoleGranted",
      "type": "event"
    },
    {
      "anonymous": false,
      "inputs": [
        {
          "indexed": true,
          "internalType": "bytes32",
          "name": "role",
          "type": "bytes32"
        },
        {
          "indexed": true,
          "internalType": "address",
          "name": "account",
          "type": "address"
        },
        {
          "indexed": true,
          "internalType": "address",
          "name": "sender",
          "type": "address"
        }
      ],
      "name": "RoleRevoked",
      "type": "event"
    },
    {
      "anonymous": false,
      "inputs": [
        {
          "indexed": true,
          "internalType": "address",
          "name": "user",
          "type": "address"
        },
        {
          "indexed": false,
          "internalType": "uint256",
          "name": "amount",
          "type": "uint256"
        }
      ],
      "name": "Staked",
      "type": "event"
    },
    {
      "anonymous": false,
      "inputs": [
        {
          "indexed": true,
          "internalType": "address",
          "name": "user",
          "type": "address"
        },
        {
          "indexed": false,
          "internalType": "uint256",
          "name": "amount",
          "type": "uint256"
        },
        {
          "indexed": false,
          "internalType": "uint256",
          "name": "reward",
          "type": "uint256"
        }
      ],
      "name": "Unstaked",
      "type": "event"
    },
    {
      "inputs": [],
      "name": "ADMIN_ROLE",
      "outputs": [
        {
          "internalType": "bytes32",
          "name": "",
          "type": "bytes32"
        }
      ],
      "stateMutability": "view",
      "type": "function"
    },
    {
      "inputs": [],
      "name": "DEFAULT_ADMIN_ROLE",
      "outputs": [
        {
          "internalType": "bytes32",
          "name": "",
          "type": "bytes32"
        }
      ],
      "stateMutability": "view",
      "type": "function"
    },
    {
      "inputs": [
        {
          "internalType": "address",
          "name": "user",
          "type": "address"
        }
      ],
      "name": "calculateReward",
      "outputs": [
        {
          "internalType": "uint256",
          "name": "",
          "type": "uint256"
        }
      ],
      "stateMutability": "view",
      "type": "function"
    },
    {
      "inputs": [],
      "name": "emergencyWithdraw",
      "outputs": [],
      "stateMutability": "nonpayable",
      "type": "function"
    },
    {
      "inputs": [],
      "name": "fundRewards",
      "outputs": [],
      "stateMutability": "payable",
      "type": "function"
    },
    {
      "inputs": [
        {
          "internalType": "bytes32",
          "name": "role",
          "type": "bytes32"
        }
      ],
      "name": "getRoleAdmin",
      "outputs": [
        {
          "internalType": "bytes32",
          "name": "",
          "type": "bytes32"
        }
      ],
      "stateMutability": "view",
      "type": "function"
    },
    {
      "inputs": [
        {
          "internalType": "bytes32",
          "name": "role",
          "type": "bytes32"
        },
        {
          "internalType": "address",
          "name": "account",
          "type": "address"
        }
      ],
      "name": "grantRole",
      "outputs": [],
      "stateMutability": "nonpayable",
      "type": "function"
    },
    {
      "inputs": [
        {
          "internalType": "bytes32",
          "name": "role",
          "type": "bytes32"
        },
        {
          "internalType": "address",
          "name": "account",
          "type": "address"
        }
      ],
      "name": "hasRole",
      "outputs": [
        {
          "internalType": "bool",
          "name": "",
          "type": "bool"
        }
      ],
      "stateMutability": "view",
      "type": "function"
    },
    {
      "inputs": [],
      "name": "lockupPeriod",
      "outputs": [
        {
          "internalType": "uint256",
          "name": "",
          "type": "uint256"
        }
      ],
      "stateMutability": "view",
      "type": "function"
    },
    {
      "inputs": [
        {
          "internalType": "bytes32",
          "name": "role",
          "type": "bytes32"
        },
        {
          "internalType": "address",
          "name": "callerConfirmation",
          "type": "address"
        }
      ],
      "name": "renounceRole",
      "outputs": [],
      "stateMutability": "nonpayable",
      "type": "function"
    },
    {
      "inputs": [
        {
          "internalType": "bytes32",
          "name": "role",
          "type": "bytes32"
        },
        {
          "internalType": "address",
          "name": "account",
          "type": "address"
        }
      ],
      "name": "revokeRole",
      "outputs": [],
      "stateMutability": "nonpayable",
      "type": "function"
    },
    {
      "inputs": [],
      "name": "rewardRate",
      "outputs": [
        {
          "internalType": "uint256",
          "name": "",
          "type": "uint256"
        }
      ],
      "stateMutability": "view",
      "type": "function"
    },
    {
      "inputs": [
        {
          "internalType": "uint256",
          "name": "_newRate",
          "type": "uint256"
        }
      ],
      "name": "setRewardRate",
      "outputs": [],
      "stateMutability": "nonpayable",
      "type": "function"
    },
    {
      "inputs": [],
      "name": "stake",
      "outputs": [],
      "stateMutability": "payable",
      "type": "function"
    },
    {
      "inputs": [
        {
          "internalType": "address",
          "name": "",
          "type": "address"
        }
      ],
      "name": "stakes",
      "outputs": [
        {
          "internalType": "uint256",
          "name": "amount",
          "type": "uint256"
        },
        {
          "internalType": "uint256",
          "name": "startTime",
          "type": "uint256"
        },
        {
          "internalType": "bool",
          "name": "active",
          "type": "bool"
        }
      ],
      "stateMutability": "view",
      "type": "function"
    },
    {
      "inputs": [
        {
          "internalType": "bytes4",
          "name": "interfaceId",
          "type": "bytes4"
        }
      ],
      "name": "supportsInterface",
      "outputs": [
        {
          "internalType": "bool",
          "name": "",
          "type": "bool"
        }
      ],
      "stateMutability": "view",
      "type": "function"
    },
    {
      "inputs": [],
      "name": "unstake",
      "outputs": [],
      "stateMutability": "nonpayable",
      "type": "function"
    },
    {
      "inputs": [],
      "name": "wdogeToken",
      "outputs": [
        {
          "internalType": "contract WDOGEToken",
          "name": "",
          "type": "address"
        }
      ],
      "stateMutability": "view",
      "type": "function"
    },
    {
      "stateMutability": "payable",
      "type": "receive"
    }
  ],
  "bytecode": "0x60a0604052601960025562093a806003553480156200001d57600080fd5b5060405162001d7438038062001d7483398181016040528101906200004391906200031f565b60018081905550600073ffffffffffffffffffffffffffffffffffffffff168173ffffffffffffffffffffffffffffffffffffffff1603620000bc576040517f08c379a0000000000000000000000000000000000000000000000000000000008152600401620000b390620003b2565b60405180910390fd5b8073ffffffffffffffffffffffffffffffffffffffff1660808173ffffffffffffffffffffffffffffffffffffffff1681525050620001056000801b336200014060201b60201c565b50620001387fa49807205ce4d355092ef5a8a18f56e8913cf4a201fbe287825b095693c21775336200014060201b60201c565b5050620003d4565b60006200015483836200024360201b60201c565b6200023857600160008085815260200190815260200160002060000160008473ffffffffffffffffffffffffffffffffffffffff1673ffffffffffffffffffffffffffffffffffffffff16815260200190815260200160002060006101000a81548160ff021916908315150217905550620001d4620002ad60201b60201c565b73ffffffffffffffffffffffffffffffffffffffff168273ffffffffffffffffffffffffffffffffffffffff16847f2f8788117e7eff1d82e926ec794901d17c78024a50270940304540a733656f0d60405160405180910390a4600190506200023d565b600090505b92915050565b600080600084815260200190815260200160002060000160008373ffffffffffffffffffffffffffffffffffffffff1673ffffffffffffffffffffffffffffffffffffffff16815260200190815260200160002060009054906101000a900460ff16905092915050565b600033905090565b600080fd5b600073ffffffffffffffffffffffffffffffffffffffff82169050919050565b6000620002e782620002ba565b9050919050565b620002f981620002da565b81146200030557600080fd5b50565b6000815190506200031981620002ee565b92915050565b600060208284031215620003385762000337620002b5565b5b6000620003488482850162000308565b91505092915050565b600082825260208201905092915050565b7f496e76616c69642057444f474520746f6b656e20616464726573730000000000600082015250565b60006200039a601b8362000351565b9150620003a78262000362565b602082019050919050565b60006020820190508181036000830152620003cd816200038b565b9050919050565b60805161196f6200040560003960008181610641015281816109a301528181610b1c0152610ea4015261196f6000f3fe60806040526004361061010d5760003560e01c80637b0a47ee11610095578063d547741f11610064578063d547741f14610357578063d82e396214610380578063db2e21bc146103bd578063ee947a7c146103d4578063ff18bf0b146103ff57610114565b80637b0a47ee1461029b57806391d14854146102c65780639e447fc614610303578063a217fddf1461032c57610114565b80632f2ff15d116100dc5780632f2ff15d146101e957806336568abe146102125780633a4b66f11461023b5780635a4715241461024557806375b238fc1461027057610114565b806301ffc9a71461011957806316934fc414610156578063248a9ca3146101955780632def6620146101d257610114565b3661011457005b600080fd5b34801561012557600080fd5b50610140600480360381019061013b9190611437565b610409565b60405161014d919061147f565b60405180910390f35b34801561016257600080fd5b5061017d600480360381019061017891906114f8565b610483565b60405161018c9392919061153e565b60405180910390f35b3480156101a157600080fd5b506101bc60048036038101906101b791906115ab565b6104ba565b6040516101c991906115e7565b60405180910390f35b3480156101de57600080fd5b506101e76104d9565b005b3480156101f557600080fd5b50610210600480360381019061020b9190611602565b61083b565b005b34801561021e57600080fd5b5061023960048036038101906102349190611602565b61085d565b005b6102436108d8565b005b34801561025157600080fd5b5061025a610b1a565b60405161026791906116a1565b60405180910390f35b34801561027c57600080fd5b50610285610b3e565b60405161029291906115e7565b60405180910390f35b3480156102a757600080fd5b506102b0610b62565b6040516102bd91906116bc565b60405180910390f35b3480156102d257600080fd5b506102ed60048036038101906102e89190611602565b610b68565b6040516102fa919061147f565b60405180910390f35b34801561030f57600080fd5b5061032a60048036038101906103259190611703565b610bd2565b005b34801561033857600080fd5b50610341610c8e565b60405161034e91906115e7565b60405180910390f35b34801561036357600080fd5b5061037e60048036038101906103799190611602565b610c95565b005b34801561038c57600080fd5b506103a760048036038101906103a291906114f8565b610cb7565b6040516103b491906116bc565b60405180910390f35b3480156103c957600080fd5b506103d2610da4565b005b3480156103e057600080fd5b506103e961109e565b6040516103f691906116bc565b60405180910390f35b6104076110a4565b005b60007f7965db0b000000000000000000000000000000000000000000000000000000007bffffffffffffffffffffffffffffffffffffffffffffffffffffffff1916827bffffffffffffffffffffffffffffffffffffffffffffffffffffffff1916148061047c575061047b826110d1565b5b9050919050565b60046020528060005260406000206000915090508060000154908060010154908060020160009054906101000a900460ff16905083565b6000806000838152602001908152602001600020600101549050919050565b6104e161113b565b6000600460003373ffffffffffffffffffffffffffffffffffffffff1673ffffffffffffffffffffffffffffffffffffffff16815260200190815260200160002060405180606001604052908160008201548152602001600182015481526020016002820160009054906101000a900460ff16151515158152505090508060400151610599576040517ffb34894200000000000000000000000000000000000000000000000000000000815260040160405180910390fd5b60035481602001516105ab919061175f565b4210156105e4576040517f9e2470e900000000000000000000000000000000000000000000000000000000815260040160405180910390fd5b60006105ef33610cb7565b90506000818360000151610603919061175f565b90508047101561063f576040517ff4d678b800000000000000000000000000000000000000000000000000000000815260040160405180910390fd5b7f000000000000000000000000000000000000000000000000000000000000000073ffffffffffffffffffffffffffffffffffffffff16639dc29fac3385600001516040518363ffffffff1660e01b815260040161069e9291906117a2565b600060405180830381600087803b1580156106b857600080fd5b505af11580156106cc573d6000803e3d6000fd5b50505050600460003373ffffffffffffffffffffffffffffffffffffffff1673ffffffffffffffffffffffffffffffffffffffff16815260200190815260200160002060008082016000905560018201600090556002820160006101000a81549060ff0219169055505060003373ffffffffffffffffffffffffffffffffffffffff168260405161075c906117fc565b60006040518083038185875af1925050503d8060008114610799576040519150601f19603f3d011682016040523d82523d6000602084013e61079e565b606091505b50509050806107d9576040517f90b8ec1800000000000000000000000000000000000000000000000000000000815260040160405180910390fd5b3373ffffffffffffffffffffffffffffffffffffffff167f7fc4727e062e336010f2c282598ef5f14facb3de68cf8195c2f23e1454b2b74e856000015185604051610825929190611811565b60405180910390a250505050610839611181565b565b610844826104ba565b61084d8161118a565b610857838361119e565b50505050565b61086561128f565b73ffffffffffffffffffffffffffffffffffffffff168173ffffffffffffffffffffffffffffffffffffffff16146108c9576040517f6697b23200000000000000000000000000000000000000000000000000000000815260040160405180910390fd5b6108d38282611297565b505050565b6108e061113b565b6000340361091a576040517f2c5211c600000000000000000000000000000000000000000000000000000000815260040160405180910390fd5b600460003373ffffffffffffffffffffffffffffffffffffffff1673ffffffffffffffffffffffffffffffffffffffff16815260200190815260200160002060020160009054906101000a900460ff16156109a1576040517f8b8e783000000000000000000000000000000000000000000000000000000000815260040160405180910390fd5b7f000000000000000000000000000000000000000000000000000000000000000073ffffffffffffffffffffffffffffffffffffffff166340c10f1933346040518363ffffffff1660e01b81526004016109fc9291906117a2565b600060405180830381600087803b158015610a1657600080fd5b505af1158015610a2a573d6000803e3d6000fd5b50505050604051806060016040528034815260200142815260200160011515815250600460003373ffffffffffffffffffffffffffffffffffffffff1673ffffffffffffffffffffffffffffffffffffffff168152602001908152602001600020600082015181600001556020820151816001015560408201518160020160006101000a81548160ff0219169083151502179055509050503373ffffffffffffffffffffffffffffffffffffffff167f9e71bc8eea02a63969f509818f2dafb9254532904319f9dbda79b67bd34a5f3d34604051610b0891906116bc565b60405180910390a2610b18611181565b565b7f000000000000000000000000000000000000000000000000000000000000000081565b7fa49807205ce4d355092ef5a8a18f56e8913cf4a201fbe287825b095693c2177581565b60025481565b600080600084815260200190815260200160002060000160008373ffffffffffffffffffffffffffffffffffffffff1673ffffffffffffffffffffffffffffffffffffffff16815260200190815260200160002060009054906101000a900460ff16905092915050565b7fa49807205ce4d355092ef5a8a18f56e8913cf4a201fbe287825b095693c21775610bfc8161118a565b6000821480610c0b5750606482115b15610c42576040517f6a43f8d100000000000000000000000000000000000000000000000000000000815260040160405180910390fd5b60006002549050826002819055507fc390a98ace15a7bb6bab611eedfdbb2685043b241a869420043cdfb23ccfee508184604051610c81929190611811565b60405180910390a1505050565b6000801b81565b610c9e826104ba565b610ca78161118a565b610cb18383611297565b50505050565b600080600460008473ffffffffffffffffffffffffffffffffffffffff1673ffffffffffffffffffffffffffffffffffffffff16815260200190815260200160002060405180606001604052908160008201548152602001600182015481526020016002820160009054906101000a900460ff16151515158152505090508060400151610d48576000915050610d9f565b6000816020015142610d5a919061183a565b9050600060646301e13380836002548660000151610d78919061186e565b610d82919061186e565b610d8c91906118df565b610d9691906118df565b90508093505050505b919050565b610dac61113b565b6000600460003373ffffffffffffffffffffffffffffffffffffffff1673ffffffffffffffffffffffffffffffffffffffff16815260200190815260200160002060405180606001604052908160008201548152602001600182015481526020016002820160009054906101000a900460ff16151515158152505090508060400151610e64576040517ffb34894200000000000000000000000000000000000000000000000000000000815260040160405180910390fd5b8060000151471015610ea2576040517ff4d678b800000000000000000000000000000000000000000000000000000000815260040160405180910390fd5b7f000000000000000000000000000000000000000000000000000000000000000073ffffffffffffffffffffffffffffffffffffffff16639dc29fac3383600001516040518363ffffffff1660e01b8152600401610f019291906117a2565b600060405180830381600087803b158015610f1b57600080fd5b505af1158015610f2f573d6000803e3d6000fd5b50505050600460003373ffffffffffffffffffffffffffffffffffffffff1673ffffffffffffffffffffffffffffffffffffffff16815260200190815260200160002060008082016000905560018201600090556002820160006101000a81549060ff0219169055505060003373ffffffffffffffffffffffffffffffffffffffff168260000151604051610fc3906117fc565b60006040518083038185875af1925050503d8060008114611000576040519150601f19603f3d011682016040523d82523d6000602084013e611005565b606091505b5050905080611040576040517f90b8ec1800000000000000000000000000000000000000000000000000000000815260040160405180910390fd5b3373ffffffffffffffffffffffffffffffffffffffff167f2e39961a70a10f4d46383948095ac2752b3ee642a7c76aa827410aaff08c2e51836000015160405161108a91906116bc565b60405180910390a2505061109c611181565b565b60035481565b7fa49807205ce4d355092ef5a8a18f56e8913cf4a201fbe287825b095693c217756110ce8161118a565b50565b60007f01ffc9a7000000000000000000000000000000000000000000000000000000007bffffffffffffffffffffffffffffffffffffffffffffffffffffffff1916827bffffffffffffffffffffffffffffffffffffffffffffffffffffffff1916149050919050565b600260015403611177576040517f3ee5aeb500000000000000000000000000000000000000000000000000000000815260040160405180910390fd5b6002600181905550565b60018081905550565b61119b8161119661128f565b611389565b50565b60006111aa8383610b68565b61128457600160008085815260200190815260200160002060000160008473ffffffffffffffffffffffffffffffffffffffff1673ffffffffffffffffffffffffffffffffffffffff16815260200190815260200160002060006101000a81548160ff02191690831515021790555061122161128f565b73ffffffffffffffffffffffffffffffffffffffff168273ffffffffffffffffffffffffffffffffffffffff16847f2f8788117e7eff1d82e926ec794901d17c78024a50270940304540a733656f0d60405160405180910390a460019050611289565b600090505b92915050565b600033905090565b60006112a38383610b68565b1561137e57600080600085815260200190815260200160002060000160008473ffffffffffffffffffffffffffffffffffffffff1673ffffffffffffffffffffffffffffffffffffffff16815260200190815260200160002060006101000a81548160ff02191690831515021790555061131b61128f565b73ffffffffffffffffffffffffffffffffffffffff168273ffffffffffffffffffffffffffffffffffffffff16847ff6391f5c32d9c69d2a47ea670b442974b53935d1edc7fd64eb21e047a839171b60405160405180910390a460019050611383565b600090505b92915050565b6113938282610b68565b6113d65780826040517fe2517d3f0000000000000000000000000000000000000000000000000000000081526004016113cd929190611910565b60405180910390fd5b5050565b600080fd5b60007fffffffff0000000000000000000000000000000000000000000000000000000082169050919050565b611414816113df565b811461141f57600080fd5b50565b6000813590506114318161140b565b92915050565b60006020828403121561144d5761144c6113da565b5b600061145b84828501611422565b91505092915050565b60008115159050919050565b61147981611464565b82525050565b60006020820190506114946000830184611470565b92915050565b600073ffffffffffffffffffffffffffffffffffffffff82169050919050565b60006114c58261149a565b9050919050565b6114d5816114ba565b81146114e057600080fd5b50565b6000813590506114f2816114cc565b92915050565b60006020828403121561150e5761150d6113da565b5b600061151c848285016114e3565b91505092915050565b6000819050919050565b61153881611525565b82525050565b6000606082019050611553600083018661152f565b611560602083018561152f565b61156d6040830184611470565b949350505050565b6000819050919050565b61158881611575565b811461159357600080fd5b50565b6000813590506115a58161157f565b92915050565b6000602082840312156115c1576115c06113da565b5b60006115cf84828501611596565b91505092915050565b6115e181611575565b82525050565b60006020820190506115fc60008301846115d8565b92915050565b60008060408385031215611619576116186113da565b5b600061162785828601611596565b9250506020611638858286016114e3565b9150509250929050565b6000819050919050565b600061166761166261165d8461149a565b611642565b61149a565b9050919050565b60006116798261164c565b9050919050565b600061168b8261166e565b9050919050565b61169b81611680565b82525050565b60006020820190506116b66000830184611692565b92915050565b60006020820190506116d1600083018461152f565b92915050565b6116e081611525565b81146116eb57600080fd5b50565b6000813590506116fd816116d7565b92915050565b600060208284031215611719576117186113da565b5b6000611727848285016116ee565b91505092915050565b7f4e487b7100000000000000000000000000000000000000000000000000000000600052601160045260246000fd5b600061176a82611525565b915061177583611525565b925082820190508082111561178d5761178c611730565b5b92915050565b61179c816114ba565b82525050565b60006040820190506117b76000830185611793565b6117c4602083018461152f565b9392505050565b600081905092915050565b50565b60006117e66000836117cb565b91506117f1826117d6565b600082019050919050565b6000611807826117d9565b9150819050919050565b6000604082019050611826600083018561152f565b611833602083018461152f565b9392505050565b600061184582611525565b915061185083611525565b925082820390508181111561186857611867611730565b5b92915050565b600061187982611525565b915061188483611525565b925082820261189281611525565b915082820484148315176118a9576118a8611730565b5b5092915050565b7f4e487b7100000000000000000000000000000000000000000000000000000000600052601260045260246000fd5b60006118ea82611525565b91506118f583611525565b925082611905576119046118b0565b5b828204905092915050565b60006040820190506119256000830185611793565b61193260208301846115d8565b939250505056fea264697066735822122006a18620791894bf5ca12f94d8be26314de3a1eb3ac4c57766dc84cbe27474f164736f6c63430008140033",
  "linkReferences": {},
  "deployedLinkReferences": {}
}